{
  "contractName": "ProofOfExistence2",
  "abi": [
    {
      "constant": false,
      "inputs": [
        {
          "name": "proof",
          "type": "bytes32"
        }
      ],
      "name": "storeProof",
      "outputs": [],
      "payable": false,
      "stateMutability": "nonpayable",
      "type": "function",
      "signature": "0x8952877b"
    },
    {
      "constant": false,
      "inputs": [
        {
          "name": "document",
          "type": "string"
        }
      ],
      "name": "notarize",
      "outputs": [],
      "payable": false,
      "stateMutability": "nonpayable",
      "type": "function",
      "signature": "0x7183616c"
    },
    {
      "constant": true,
      "inputs": [
        {
          "name": "document",
          "type": "string"
        }
      ],
      "name": "proofFor",
      "outputs": [
        {
          "name": "",
          "type": "bytes32"
        }
      ],
      "payable": false,
      "stateMutability": "pure",
      "type": "function",
      "signature": "0xf6c1acdf"
    },
    {
      "constant": true,
      "inputs": [
        {
          "name": "document",
          "type": "string"
        }
      ],
      "name": "checkDocument",
      "outputs": [
        {
          "name": "",
          "type": "bool"
        }
      ],
      "payable": false,
      "stateMutability": "view",
      "type": "function",
      "signature": "0x53fb9233"
    }
  ],
  "bytecode": "0x608060405234801561001057600080fd5b5061052a806100206000396000f3fe608060405260043610610062576000357c0100000000000000000000000000000000000000000000000000000000900463ffffffff16806353fb9233146100675780637183616c146101475780638952877b146101cd578063f6c1acdf14610208575b600080fd5b34801561007357600080fd5b5061012d6004803603602081101561008a57600080fd5b81019080803590602001906401000000008111156100a757600080fd5b8201836020820111156100b957600080fd5b803590602001918460018302840111640100000000831117156100db57600080fd5b91908080601f016020809104026020016040519081016040528093929190818152602001838380828437600081840152601f19601f8201169050808301925050505050505091929192905050506102e4565b604051808215151515815260200191505060405180910390f35b34801561015357600080fd5b506101cb6004803603602081101561016a57600080fd5b810190808035906020019064010000000081111561018757600080fd5b82018360208201111561019957600080fd5b803590602001918460018302840111640100000000831117156101bb57600080fd5b9091929391929390505050610303565b005b3480156101d957600080fd5b50610206600480360360208110156101f057600080fd5b8101908080359060200190929190505050610362565b005b34801561021457600080fd5b506102ce6004803603602081101561022b57600080fd5b810190808035906020019064010000000081111561024857600080fd5b82018360208201111561025a57600080fd5b8035906020019184600183028401116401000000008311171561027c57600080fd5b91908080601f016020809104026020016040519081016040528093929190818152602001838380828437600081840152601f19601f820116905080830192505050505050509192919290505050610391565b6040518082815260200191505060405180910390f35b6000806102f083610391565b90506102fb816104a6565b915050919050565b600061035283838080601f016020809104026020016040519081016040528093929190818152602001838380828437600081840152601f19601f82011690508083019250505050505050610391565b905061035d81610362565b505050565b600081908060018154018082558091505090600182039060005260206000200160009091929091909150555050565b60006002826040516020018082805190602001908083835b6020831015156103ce57805182526020820191506020810190506020830392506103a9565b6001836020036101000a0380198251168184511680821785525050505050509050019150506040516020818303038152906040526040518082805190602001908083835b6020831015156104375780518252602082019150602081019050602083039250610412565b6001836020036101000a038019825116818451168082178552505050505050905001915050602060405180830381855afa158015610479573d6000803e3d6000fd5b5050506040513d602081101561048e57600080fd5b81019080805190602001909291905050509050919050565b600080600090505b6000805490508110156104f357826000828154811015156104cb57fe5b906000526020600020015414156104e65760019150506104f9565b80806001019150506104ae565b50600090505b91905056fea165627a7a7230582076cb886c7ce9889258df0102f13eed59a1007ae0459743416e6c73564b5df2140029",
  "source": "pragma solidity ^0.5.0;\n\ncontract ProofOfExistence2 {\n\n  // state\n  bytes32[] private proofs;\n\n  // store a proof of existence in the contract state\n  // *transactional function*\n  function storeProof(bytes32 proof) \n    public \n  {\n    proofs.push(proof);\n  }\n\n  // calculate and store the proof for a document\n  // *transactional function*\n  function notarize(string calldata document) \n    external \n  {\n    bytes32 proof = proofFor(document);\n    storeProof(proof);\n  }\n\n  // helper function to get a document's sha256\n  // *read-only function*\n  function proofFor(string memory document) \n    pure \n    public \n    returns (bytes32) \n  {\n    return sha256(abi.encodePacked(document));\n  }\n\n  // check if a document has been notarized\n  // *read-only function*\n  function checkDocument(string memory document) \n    public \n    view \n    returns (bool) \n  {\n    bytes32 proof = proofFor(document);\n    return hasProof(proof);\n  }\n\n  // returns true if proof is stored\n  // *read-only function*\n  function hasProof(bytes32 proof) \n    internal \n    view \n    returns (bool) \n  {\n    for (uint256 i = 0; i < proofs.length; i++) {\n      if (proofs[i] == proof) {\n        return true;\n      }\n    }\n    return false;\n  }\n}",
  "sourcePath": "/Users/anishagnihotri/Development/Consensys/proof-of-existence/contracts/ProofOfExistence2.sol",
  "compiler": {
    "name": "solc",
    "version": "0.5.0+commit.1d4f565a.Emscripten.clang"
  },
  "schemaVersion": "3.0.1",
  "updatedAt": "2019-01-07T00:15:15.519Z",
  "devdoc": {
    "methods": {}
  },
  "userdoc": {
    "methods": {}
  }
}